{
  "contractName": "TokenCrowdsale",
  "abi": [
    {
      "constant": true,
      "inputs": [],
      "name": "status",
      "outputs": [
        {
          "name": "",
          "type": "uint8"
        }
      ],
      "payable": false,
      "stateMutability": "view",
      "type": "function"
    },
    {
      "constant": true,
      "inputs": [],
      "name": "maxCap",
      "outputs": [
        {
          "name": "",
          "type": "uint256"
        }
      ],
      "payable": false,
      "stateMutability": "view",
      "type": "function"
    },
    {
      "constant": true,
      "inputs": [],
      "name": "metadata",
      "outputs": [
        {
          "name": "",
          "type": "string"
        }
      ],
      "payable": false,
      "stateMutability": "view",
      "type": "function"
    },
    {
      "constant": true,
      "inputs": [],
      "name": "giveRatio",
      "outputs": [
        {
          "name": "",
          "type": "uint256"
        }
      ],
      "payable": false,
      "stateMutability": "view",
      "type": "function"
    },
    {
      "constant": true,
      "inputs": [],
      "name": "acceptRatio",
      "outputs": [
        {
          "name": "",
          "type": "uint256"
        }
      ],
      "payable": false,
      "stateMutability": "view",
      "type": "function"
    },
    {
      "constant": true,
      "inputs": [],
      "name": "owner",
      "outputs": [
        {
          "name": "",
          "type": "address"
        }
      ],
      "payable": false,
      "stateMutability": "view",
      "type": "function"
    },
    {
      "constant": true,
      "inputs": [],
      "name": "start",
      "outputs": [
        {
          "name": "",
          "type": "uint256"
        }
      ],
      "payable": false,
      "stateMutability": "view",
      "type": "function"
    },
    {
      "constant": true,
      "inputs": [],
      "name": "end",
      "outputs": [
        {
          "name": "",
          "type": "uint256"
        }
      ],
      "payable": false,
      "stateMutability": "view",
      "type": "function"
    },
    {
      "constant": true,
      "inputs": [],
      "name": "raised",
      "outputs": [
        {
          "name": "",
          "type": "uint256"
        }
      ],
      "payable": false,
      "stateMutability": "view",
      "type": "function"
    },
    {
      "inputs": [
        {
          "name": "_tokenToGive",
          "type": "address"
        },
        {
          "name": "_tokenToAccept",
          "type": "address"
        },
        {
          "name": "_start",
          "type": "uint256"
        },
        {
          "name": "_end",
          "type": "uint256"
        },
        {
          "name": "_acceptRatio",
          "type": "uint256"
        },
        {
          "name": "_giveRatio",
          "type": "uint256"
        },
        {
          "name": "_maxCap",
          "type": "uint256"
        },
        {
          "name": "_owner",
          "type": "address"
        },
        {
          "name": "_metadata",
          "type": "string"
        }
      ],
      "payable": false,
      "stateMutability": "nonpayable",
      "type": "constructor"
    },
    {
      "anonymous": false,
      "inputs": [],
      "name": "CapReached",
      "type": "event"
    },
    {
      "anonymous": false,
      "inputs": [
        {
          "indexed": true,
          "name": "_from",
          "type": "address"
        },
        {
          "indexed": false,
          "name": "_amount",
          "type": "uint256"
        }
      ],
      "name": "ContributionFrom",
      "type": "event"
    },
    {
      "anonymous": false,
      "inputs": [
        {
          "indexed": true,
          "name": "_to",
          "type": "address"
        },
        {
          "indexed": false,
          "name": "_amount",
          "type": "uint256"
        }
      ],
      "name": "RefundTo",
      "type": "event"
    },
    {
      "constant": true,
      "inputs": [],
      "name": "getMyReservation",
      "outputs": [
        {
          "name": "",
          "type": "uint256"
        }
      ],
      "payable": false,
      "stateMutability": "view",
      "type": "function"
    },
    {
      "constant": true,
      "inputs": [],
      "name": "getReservationsData",
      "outputs": [
        {
          "name": "",
          "type": "address[]"
        },
        {
          "name": "",
          "type": "uint256[]"
        }
      ],
      "payable": false,
      "stateMutability": "view",
      "type": "function"
    },
    {
      "constant": false,
      "inputs": [],
      "name": "stopCrowdsale",
      "outputs": [],
      "payable": false,
      "stateMutability": "nonpayable",
      "type": "function"
    },
    {
      "constant": false,
      "inputs": [],
      "name": "unlockCrowdsale",
      "outputs": [],
      "payable": false,
      "stateMutability": "nonpayable",
      "type": "function"
    },
    {
      "constant": false,
      "inputs": [
        {
          "name": "_amount",
          "type": "uint256"
        }
      ],
      "name": "refundMe",
      "outputs": [],
      "payable": false,
      "stateMutability": "nonpayable",
      "type": "function"
    },
    {
      "constant": false,
      "inputs": [
        {
          "name": "_amount",
          "type": "uint256"
        }
      ],
      "name": "joinCrowdsale",
      "outputs": [],
      "payable": false,
      "stateMutability": "nonpayable",
      "type": "function"
    }
  ],
  "bytecode": "0x60806040523480156200001157600080fd5b50604051620024c4380380620024c483398101806040526101208110156200003857600080fd5b8101908080519060200190929190805190602001909291908051906020019092919080519060200190929190805190602001909291908051906020019092919080519060200190929190805190602001909291908051640100000000811115620000a157600080fd5b82810190506020810184811115620000b857600080fd5b8151856001820283011164010000000082111715620000d657600080fd5b50509291905050508773ffffffffffffffffffffffffffffffffffffffff168973ffffffffffffffffffffffffffffffffffffffff161415801562000126575085871080620001255750600086145b5b15156200017f576040517f08c379a00000000000000000000000000000000000000000000000000000000081526004018080602001828103825260298152602001806200249b6029913960400191505060405180910390fd5b81600260006101000a81548173ffffffffffffffffffffffffffffffffffffffff021916908373ffffffffffffffffffffffffffffffffffffffff160217905550886000806101000a81548173ffffffffffffffffffffffffffffffffffffffff021916908373ffffffffffffffffffffffffffffffffffffffff16021790555087600160006101000a81548173ffffffffffffffffffffffffffffffffffffffff021916908373ffffffffffffffffffffffffffffffffffffffff16021790555086600381905550856004819055506002600a60006101000a81548160ff021916908360028111156200026f57fe5b021790555084600581905550836006819055506000600b8190555082600c819055508060079080519060200190620002a992919062000341565b506000600554600c54811515620002bc57fe5b0614151562000317576040517f08c379a0000000000000000000000000000000000000000000000000000000008152600401808060200182810382526029815260200180620024726029913960400191505060405180910390fd5b600654600554600c548115156200032a57fe5b0402600d81905550505050505050505050620003f0565b828054600181600116156101000203166002900490600052602060002090601f016020900481019282601f106200038457805160ff1916838001178555620003b5565b82800160010185558215620003b5579182015b82811115620003b457825182559160200191906001019062000397565b5b509050620003c49190620003c8565b5090565b620003ed91905b80821115620003e9576000816000905550600101620003cf565b5090565b90565b61207280620004006000396000f3fe608060405234801561001057600080fd5b5060043610610112576000357c010000000000000000000000000000000000000000000000000000000090048063600ab28b116100b4578063be9a655511610083578063be9a655514610395578063d9c587bb146103b3578063efbe1c1c146103bd578063f0ea4bfc146103db57610112565b8063600ab28b146102d15780637540579c146102ff5780638da5cb5b1461031d578063b978a3f21461036757610112565b8063392f37e9116100f0578063392f37e91461017f57806347c3f79e146102025780634d3c2d8b146102a9578063507d5954146102c757610112565b806304fe583514610117578063200d2ed21461013557806323548b8b14610161575b600080fd5b61011f6103f9565b6040518082815260200191505060405180910390f35b61013d610440565b6040518082600281111561014d57fe5b60ff16815260200191505060405180910390f35b610169610453565b6040518082815260200191505060405180910390f35b610187610459565b6040518080602001828103825283818151815260200191508051906020019080838360005b838110156101c75780820151818401526020810190506101ac565b50505050905090810190601f1680156101f45780820380516001836020036101000a031916815260200191505b509250505060405180910390f35b61020a6104f7565b604051808060200180602001838103835285818151815260200191508051906020019060200280838360005b83811015610251578082015181840152602081019050610236565b50505050905001838103825284818151815260200191508051906020019060200280838360005b83811015610293578082015181840152602081019050610278565b5050505090500194505050505060405180910390f35b6102b1610725565b6040518082815260200191505060405180910390f35b6102cf61072b565b005b6102fd600480360360208110156102e757600080fd5b8101908080359060200190929190505050610b2f565b005b610307610b3c565b6040518082815260200191505060405180910390f35b610325610b42565b604051808273ffffffffffffffffffffffffffffffffffffffff1673ffffffffffffffffffffffffffffffffffffffff16815260200191505060405180910390f35b6103936004803603602081101561037d57600080fd5b8101908080359060200190929190505050610b68565b005b61039d61156e565b6040518082815260200191505060405180910390f35b6103bb611574565b005b6103c5611787565b6040518082815260200191505060405180910390f35b6103e361178d565b6040518082815260200191505060405180910390f35b6000600860003373ffffffffffffffffffffffffffffffffffffffff1673ffffffffffffffffffffffffffffffffffffffff16815260200190815260200160002054905090565b600a60009054906101000a900460ff1681565b600c5481565b60078054600181600116156101000203166002900480601f0160208091040260200160405190810160405280929190818152602001828054600181600116156101000203166002900480156104ef5780601f106104c4576101008083540402835291602001916104ef565b820191906000526020600020905b8154815290600101906020018083116104d257829003601f168201915b505050505081565b606080600260009054906101000a900473ffffffffffffffffffffffffffffffffffffffff1673ffffffffffffffffffffffffffffffffffffffff163373ffffffffffffffffffffffffffffffffffffffff161415156105a2576040517f08c379a0000000000000000000000000000000000000000000000000000000008152600401808060200182810382526029815260200180611ffb6029913960400191505060405180910390fd5b60606009805490506040519080825280602002602001820160405280156105d85781602001602082028038833980820191505090505b50905060008090505b600980549050811015610690576008600060098381548110151561060157fe5b9060005260206000200160009054906101000a900473ffffffffffffffffffffffffffffffffffffffff1673ffffffffffffffffffffffffffffffffffffffff1673ffffffffffffffffffffffffffffffffffffffff16815260200190815260200160002054828281518110151561067557fe5b906020019060200201818152505080806001019150506105e1565b506009818180548060200260200160405190810160405280929190818152602001828054801561071557602002820191906000526020600020905b8160009054906101000a900473ffffffffffffffffffffffffffffffffffffffff1673ffffffffffffffffffffffffffffffffffffffff16815260200190600101908083116106cb575b5050505050915092509250509091565b60065481565b600260009054906101000a900473ffffffffffffffffffffffffffffffffffffffff1673ffffffffffffffffffffffffffffffffffffffff163373ffffffffffffffffffffffffffffffffffffffff161480156107ae57506001600281111561079057fe5b600a60009054906101000a900460ff1660028111156107ab57fe5b14155b1515610805576040517f08c379a0000000000000000000000000000000000000000000000000000000008152600401808060200182810382526041815260200180611fba6041913960600191505060405180910390fd5b60008090505b6009805490508110156108f257600060098281548110151561082957fe5b9060005260206000200160009054906101000a900473ffffffffffffffffffffffffffffffffffffffff16905061089f81600860008473ffffffffffffffffffffffffffffffffffffffff1673ffffffffffffffffffffffffffffffffffffffff16815260200190815260200160002054611793565b6000600860008373ffffffffffffffffffffffffffffffffffffffff1673ffffffffffffffffffffffffffffffffffffffff1681526020019081526020016000208190555050808060010191505061080b565b506000809054906101000a900473ffffffffffffffffffffffffffffffffffffffff1673ffffffffffffffffffffffffffffffffffffffff1663a9059cbb600260009054906101000a900473ffffffffffffffffffffffffffffffffffffffff166000809054906101000a900473ffffffffffffffffffffffffffffffffffffffff1673ffffffffffffffffffffffffffffffffffffffff166370a08231306040518263ffffffff167c0100000000000000000000000000000000000000000000000000000000028152600401808273ffffffffffffffffffffffffffffffffffffffff1673ffffffffffffffffffffffffffffffffffffffff16815260200191505060206040518083038186803b158015610a0d57600080fd5b505afa158015610a21573d6000803e3d6000fd5b505050506040513d6020811015610a3757600080fd5b81019080805190602001909291905050506040518363ffffffff167c0100000000000000000000000000000000000000000000000000000000028152600401808373ffffffffffffffffffffffffffffffffffffffff1673ffffffffffffffffffffffffffffffffffffffff16815260200182815260200192505050602060405180830381600087803b158015610acd57600080fd5b505af1158015610ae1573d6000803e3d6000fd5b505050506040513d6020811015610af757600080fd5b8101908080519060200190929190505050506001600a60006101000a81548160ff02191690836002811115610b2857fe5b0217905550565b610b393382611793565b50565b60055481565b600260009054906101000a900473ffffffffffffffffffffffffffffffffffffffff1681565b610b723382611b13565b6000600c5482600b54011015610b8a57819050610b94565b600b54600c540390505b600060055482811515610ba357fe5b06141515610bfc576040517f08c379a000000000000000000000000000000000000000000000000000000000815260040180806020018281038252603b815260200180611f7f603b913960400191505060405180910390fd5b600160009054906101000a900473ffffffffffffffffffffffffffffffffffffffff1673ffffffffffffffffffffffffffffffffffffffff166323b872dd3330846040518463ffffffff167c0100000000000000000000000000000000000000000000000000000000028152600401808473ffffffffffffffffffffffffffffffffffffffff1673ffffffffffffffffffffffffffffffffffffffff1681526020018373ffffffffffffffffffffffffffffffffffffffff1673ffffffffffffffffffffffffffffffffffffffff1681526020018281526020019350505050602060405180830381600087803b158015610cf557600080fd5b505af1158015610d09573d6000803e3d6000fd5b505050506040513d6020811015610d1f57600080fd5b81019080805190602001909291905050501515610da4576040517f08c379a000000000000000000000000000000000000000000000000000000000815260040180806020018281038252601a8152602001807f546f6b656e73206d757374206265207472616e7366657272656400000000000081525060200191505060405180910390fd5b3373ffffffffffffffffffffffffffffffffffffffff167f23d0ee26b2a3812d28fff41f9ef702ae3b8139764f8e24d49fe1344e7f3a43bd826040518082815260200191505060405180910390a2600081600b54019050600d546000809054906101000a900473ffffffffffffffffffffffffffffffffffffffff1673ffffffffffffffffffffffffffffffffffffffff166370a08231306040518263ffffffff167c0100000000000000000000000000000000000000000000000000000000028152600401808273ffffffffffffffffffffffffffffffffffffffff1673ffffffffffffffffffffffffffffffffffffffff16815260200191505060206040518083038186803b158015610eb857600080fd5b505afa158015610ecc573d6000803e3d6000fd5b505050506040513d6020811015610ee257600080fd5b810190808051906020019092919050505010151515610f69576040517f08c379a00000000000000000000000000000000000000000000000000000000081526004018080602001828103825260168152602001807f43726f776473616c6520686173206e6f2066756e64730000000000000000000081525060200191505060405180910390fd5b6000600860003373ffffffffffffffffffffffffffffffffffffffff1673ffffffffffffffffffffffffffffffffffffffff1681526020019081526020016000205414156110185760093390806001815401808255809150509060018203906000526020600020016000909192909190916101000a81548173ffffffffffffffffffffffffffffffffffffffff021916908373ffffffffffffffffffffffffffffffffffffffff160217905550505b81600860003373ffffffffffffffffffffffffffffffffffffffff1673ffffffffffffffffffffffffffffffffffffffff1681526020019081526020016000206000828254019250508190555081600b60008282540192505081905550600c54600b541415611569577fd7e991d28f1e26bcef5877f88b646421da5e9149f54e321859c13c12616c915060405160405180910390a160008090505b6009805490508110156113245760006009828154811015156110d157fe5b9060005260206000200160009054906101000a900473ffffffffffffffffffffffffffffffffffffffff1690506000600654600554600860008573ffffffffffffffffffffffffffffffffffffffff1673ffffffffffffffffffffffffffffffffffffffff1681526020019081526020016000205481151561114f57fe5b040290506000811115611315576000600860008473ffffffffffffffffffffffffffffffffffffffff1673ffffffffffffffffffffffffffffffffffffffff168152602001908152602001600020819055506000809054906101000a900473ffffffffffffffffffffffffffffffffffffffff1673ffffffffffffffffffffffffffffffffffffffff1663a9059cbb83836040518363ffffffff167c0100000000000000000000000000000000000000000000000000000000028152600401808373ffffffffffffffffffffffffffffffffffffffff1673ffffffffffffffffffffffffffffffffffffffff16815260200182815260200192505050602060405180830381600087803b15801561126557600080fd5b505af1158015611279573d6000803e3d6000fd5b505050506040513d602081101561128f57600080fd5b81019080805190602001909291905050501515611314576040517f08c379a00000000000000000000000000000000000000000000000000000000081526004018080602001828103825260148152602001807f4d757374207472616e7366657220746f6b656e7300000000000000000000000081525060200191505060405180910390fd5b5b505080806001019150506110b3565b5080600b819055506001600a60006101000a81548160ff0219169083600281111561134b57fe5b0217905550600160009054906101000a900473ffffffffffffffffffffffffffffffffffffffff1673ffffffffffffffffffffffffffffffffffffffff1663a9059cbb600260009054906101000a900473ffffffffffffffffffffffffffffffffffffffff16600160009054906101000a900473ffffffffffffffffffffffffffffffffffffffff1673ffffffffffffffffffffffffffffffffffffffff166370a08231306040518263ffffffff167c0100000000000000000000000000000000000000000000000000000000028152600401808273ffffffffffffffffffffffffffffffffffffffff1673ffffffffffffffffffffffffffffffffffffffff16815260200191505060206040518083038186803b15801561146c57600080fd5b505afa158015611480573d6000803e3d6000fd5b505050506040513d602081101561149657600080fd5b81019080805190602001909291905050506040518363ffffffff167c0100000000000000000000000000000000000000000000000000000000028152600401808373ffffffffffffffffffffffffffffffffffffffff1673ffffffffffffffffffffffffffffffffffffffff16815260200182815260200192505050602060405180830381600087803b15801561152c57600080fd5b505af1158015611540573d6000803e3d6000fd5b505050506040513d602081101561155657600080fd5b8101908080519060200190929190505050505b505050565b60035481565b60028081111561158057fe5b600a60009054906101000a900460ff16600281111561159b57fe5b141515611610576040517f08c379a000000000000000000000000000000000000000000000000000000000815260040180806020018281038252600e8152602001807f4d757374206265204c4f434b454400000000000000000000000000000000000081525060200191505060405180910390fd5b600d546000809054906101000a900473ffffffffffffffffffffffffffffffffffffffff1673ffffffffffffffffffffffffffffffffffffffff166370a08231306040518263ffffffff167c0100000000000000000000000000000000000000000000000000000000028152600401808273ffffffffffffffffffffffffffffffffffffffff1673ffffffffffffffffffffffffffffffffffffffff16815260200191505060206040518083038186803b1580156116cd57600080fd5b505afa1580156116e1573d6000803e3d6000fd5b505050506040513d60208110156116f757600080fd5b810190808051906020019092919050505010151515611761576040517f08c379a0000000000000000000000000000000000000000000000000000000008152600401808060200182810382526035815260200180611f4a6035913960400191505060405180910390fd5b6000600a60006101000a81548160ff0219169083600281111561178057fe5b0217905550565b60045481565b600b5481565b600081600860008573ffffffffffffffffffffffffffffffffffffffff1673ffffffffffffffffffffffffffffffffffffffff168152602001908152602001600020540390506000600554838115156117e857fe5b06141515611841576040517f08c379a0000000000000000000000000000000000000000000000000000000008152600401808060200182810382526031815260200180611f196031913960400191505060405180910390fd5b600860008473ffffffffffffffffffffffffffffffffffffffff1673ffffffffffffffffffffffffffffffffffffffff1681526020019081526020016000205481111515156118f8576040517f08c379a000000000000000000000000000000000000000000000000000000000815260040180806020018281038252601e8152602001807f4d757374206861766520736f6d652066756e647320746f20726566756e64000081525060200191505060405180910390fd5b600160009054906101000a900473ffffffffffffffffffffffffffffffffffffffff1673ffffffffffffffffffffffffffffffffffffffff1663a9059cbb84846040518363ffffffff167c0100000000000000000000000000000000000000000000000000000000028152600401808373ffffffffffffffffffffffffffffffffffffffff1673ffffffffffffffffffffffffffffffffffffffff16815260200182815260200192505050602060405180830381600087803b1580156119bd57600080fd5b505af11580156119d1573d6000803e3d6000fd5b505050506040513d60208110156119e757600080fd5b81019080805190602001909291905050501515611a6c576040517f08c379a00000000000000000000000000000000000000000000000000000000081526004018080602001828103825260148152602001807f4d757374207472616e7366657220746f6b656e7300000000000000000000000081525060200191505060405180910390fd5b80600860008573ffffffffffffffffffffffffffffffffffffffff1673ffffffffffffffffffffffffffffffffffffffff1681526020019081526020016000208190555081600b600082825403925050819055508273ffffffffffffffffffffffffffffffffffffffff167f233aff510a73a59926e57bd4f0f988a32cdc43a32fd48954be290aca4eae0a1a836040518082815260200191505060405180910390a2505050565b600260009054906101000a900473ffffffffffffffffffffffffffffffffffffffff1673ffffffffffffffffffffffffffffffffffffffff163373ffffffffffffffffffffffffffffffffffffffff1614151515611bbc576040517f08c379a00000000000000000000000000000000000000000000000000000000081526004018080602001828103825260238152602001806120246023913960400191505060405180910390fd5b6003544210151515611c36576040517f08c379a000000000000000000000000000000000000000000000000000000000815260040180806020018281038252601e8152602001807f43726f776473616c65207374617274206d75737420626520706173736564000081525060200191505060405180910390fd5b6004544211151515611cb0576040517f08c379a00000000000000000000000000000000000000000000000000000000081526004018080602001828103825260208152602001807f43726f776473616c6520656e64206d757374206e6f742062652070617373656481525060200191505060405180910390fd5b60006002811115611cbd57fe5b600a60009054906101000a900460ff166002811115611cd857fe5b141515611d30576040517f08c379a000000000000000000000000000000000000000000000000000000000815260040180806020018281038252602b815260200180611eee602b913960400191505060405180910390fd5b611d3a8282611e5b565b1515611dae576040517f08c379a00000000000000000000000000000000000000000000000000000000081526004018080602001828103825260148152602001807f416d6f756e74206d7573742062652076616c696400000000000000000000000081525060200191505060405180910390fd5b3373ffffffffffffffffffffffffffffffffffffffff16600260009054906101000a900473ffffffffffffffffffffffffffffffffffffffff1673ffffffffffffffffffffffffffffffffffffffff1614151515611e57576040517f08c379a00000000000000000000000000000000000000000000000000000000081526004018080602001828103825260238152602001806120246023913960400191505060405180910390fd5b5050565b60008082600860003373ffffffffffffffffffffffffffffffffffffffff1673ffffffffffffffffffffffffffffffffffffffff16815260200190815260200160002054019050600860008573ffffffffffffffffffffffffffffffffffffffff1673ffffffffffffffffffffffffffffffffffffffff1681526020019081526020016000205481119150509291505056fe7468652063726f776473616c65206d757374206e6f74206265206c6f636b6564206f722073746f7070656443616e206f6e6c792061736b20726566756e6420666f722061206d756c7469706c65206f6620616363657074526174696f43726f776473616c65206d75737420686176652073756666696369656e742066756e6473206265666f726520756e6c6f636b696e674d757374206a6f696e207769746820616e20616d6f756e742077686963682069732061206d756c7469706c65206f6620616363657074526174696f4f6e6c79206f776e65722063616e2073746f702063726f776473616c652c20616e64206974206d757374206e6f7420626520616c72656164792073746f707065644f6e6c79206f776e65722063616e2073656520746f74616c207265736572766174696f6e20646174614f776e65722063616e6e6f74206a6f696e20686973206f776e2063726f776473616c65a165627a7a72305820585a1b403f7bb1b16a080fef1f3186f0151716b641bbd456b0b04c964597880000294d617820636170206d7573742062652061206d756c7469706c65206f6620616363657074526174696f506172616d65746572732073686f756c642062652076616c696420696e20636f6e7374727563746f72",
  "source": "pragma solidity ^0.5.0;\n\nimport \"./TokenTemplate.sol\";\n\n/**\n * @title TokenCrowdsale contract allows multiple entities to put money into, and\n *        when a certain cap is reached. It accepts a token and returns another token.\n */\ncontract TokenCrowdsale {\n    TokenTemplate tokenToGive; // the crowdsale must own the token for security reasons.\n    TokenTemplate tokenToAccept; // the crowdsale must accept a token as payment. or more than one?\n\n    address public owner; // the owner of the crowsale.\n\n    // start and end of the crowdsale.\n    uint256 public start;\n    uint256 public end;\n\n    uint256 public acceptRatio;\n    uint256 public giveRatio;\n    string public metadata;\n\n    mapping(address => uint256) internal reservations; // here we save the contributions from each person.\n    address[] internal contributors; // the list of contributors.\n\n    enum Status { RUNNING, STOPPED, LOCKED } //added enum to allow further options later.\n\n    Status public status;\n\n    uint256 public raised;      // reset when cap is reached.\n    uint256 public maxCap;      // token will be given when reached.\n    uint256 internal minFunds;  // minimum funds required for the contract to operate, in TokenToGive Tokens.\n\n    event CapReached();\n    event ContributionFrom(address indexed _from, uint256 _amount);\n    event RefundTo(address indexed _to, uint256 _amount);\n\n    constructor(\n        TokenTemplate _tokenToGive,\n        TokenTemplate _tokenToAccept,\n        uint256 _start,\n        uint256 _end,\n        uint256 _acceptRatio,\n        uint256 _giveRatio,\n        uint256 _maxCap,\n        address _owner,\n        string memory _metadata\n    ) public {\n        require(_tokenToGive != _tokenToAccept && (_start < _end || _end == 0), \"Parameters should be valid in constructor\");\n\n        owner = _owner;\n        tokenToGive = _tokenToGive;\n        tokenToAccept = _tokenToAccept;\n        start = _start;\n        end = _end;\n        status = Status.LOCKED;\n        acceptRatio = _acceptRatio;\n        giveRatio = _giveRatio;\n        raised = 0;\n        maxCap = _maxCap;\n        metadata = _metadata;\n\n        require(maxCap % acceptRatio == 0, \"Max cap must be a multiple of acceptRatio\");\n        minFunds = maxCap / acceptRatio * giveRatio;\n    }\n\n    /**\n     * @dev getMyReservation gets the reservation of the caller user.\n     * @return the reservation of the caller user, in TokenToAccept.\n     */\n    function getMyReservation() public view returns (uint256) {\n        return reservations[msg.sender];\n    }\n\n    /**\n     * @dev getReservationsData, accessible only to the crowdsale owner, returns\n     *      the reservations about all contributors.\n     * @return the reservations of all contributors, in (address, TokenToAccept) parallel\n     *         arrays.\n     */\n    function getReservationsData() public view returns (address[] memory, uint256[] memory) {\n        require(msg.sender == owner, \"Only owner can see total reservation data\");\n        uint256[] memory reservationArray = new uint256[](contributors.length);\n\n        for (uint256 i = 0; i < contributors.length; i++) {\n            reservationArray[i] = reservations[contributors[i]];\n        }\n\n        return (contributors, reservationArray);\n    }\n\n    /**\n     * @dev joinRequisitesPassedCheck is a check to see if a contributor is eligible to contribute\n     *      in the crowdsale. This includes time and other checks.\n     */\n    function joinRequisitesPassedCheck(address _contributor, uint256 _amount) internal view {\n        // status == RUNNING : crowdsale must be running (not stopped)\n        // tokenToAccept.transferFrom(tokenToAccept, address(this), _amount) : I must be able to transfer the money\n        // end == 0 : crowdsale has no time (it is persistent unless stopped)\n        require(msg.sender != owner, \"Owner cannot join his own crowdsale\");\n        require(now >= start, \"Crowdsale start must be passed\");\n        require(now <= end, \"Crowdsale end must not be passed\");\n        require(status == Status.RUNNING, \"the crowdsale must not be locked or stopped\");\n        require(amountValid(_contributor, _amount), \"Amount must be valid\");\n\n        require(owner != msg.sender, \"Owner cannot join his own crowdsale\");\n    }\n\n    /**\n     * @dev amountValid is true if there is no overflow.\n     */\n    function amountValid(address _contributor, uint256 _amount) internal view returns(bool) {\n        // futureAmount > reservation[msg.sender] : avoid overflow attack\n        uint256 futureAmount = reservations[msg.sender] + _amount;\n        return futureAmount > reservations[_contributor];\n    }\n\n    /**\n     * @dev stopCrowdsale sets the crowdsale as Stopped.\n     */\n    function stopCrowdsale() public {\n        require(msg.sender == owner && status != Status.STOPPED, \"Only owner can stop crowdsale, and it must not be already stopped\");\n        for (uint256 i = 0; i < contributors.length; i++) {\n            address contr = contributors[i];\n            refund(contr, reservations[contr]);\n            reservations[contr] = 0;\n        }\n        tokenToGive.transfer(owner, tokenToGive.balanceOf(address(this)));\n        status = Status.STOPPED;\n    }\n\n    /**\n     * @dev unlockCrowdsale unlocks the crowdsale if requirements are met.\n     */\n    function unlockCrowdsale() public {\n        // NOTE: beware if there are sent tokens After crowdsale stopped they are lost forever.\n        require(status == Status.LOCKED, \"Must be LOCKED\");\n        require(tokenToGive.balanceOf(address(this)) >= minFunds, \"Crowdsale must have sufficient funds before unlocking\");\n\n        status = Status.RUNNING;\n    }\n\n    /**\n     * @dev refundMe refunds the pending contribution to the user, in the\n     *      specified amount.\n     * @param _amount the amount of TokenToAccept to refund.\n     */\n    function refundMe(uint256 _amount) public {\n        refund(msg.sender, _amount);\n    }\n\n    /**\n     * @dev refund performs a generic refund to an address.\n     * @param _amount the amount of TokenToAccept to refund.\n     */\n    function refund(address _to, uint256 _amount) internal {\n        uint256 netAmount = reservations[_to] - _amount;\n\n        require(_amount % acceptRatio == 0, \"Can only ask refund for a multiple of acceptRatio\");\n        require(netAmount <= reservations[_to], \"Must have some funds to refund\");\n\n        // FIXME: reentrable.\n        require(tokenToAccept.transfer(_to, _amount), \"Must transfer tokens\");\n\n        reservations[_to] = netAmount;\n\n        raised -= _amount;\n\n        emit RefundTo(_to, _amount);\n    }\n\n    /**\n     * @dev joinCrowdsale allows the user to contribute by the specified amount of TokenToGive,\n     *      if it passes the checks.\n     * @param _amount the amount of TokenToAccept to contribute with.\n     */\n    function joinCrowdsale(uint256 _amount) public {\n        joinRequisitesPassedCheck(msg.sender, _amount);\n\n        uint256 actualAmount;\n        if (raised + _amount < maxCap) { // cap not reached, else only the difference is transferred, the rest is given back\n            actualAmount = _amount;\n        } else {\n            actualAmount = maxCap - raised;\n        }\n        require(actualAmount % acceptRatio == 0, \"Must join with an amount which is a multiple of acceptRatio\");\n\n        require(tokenToAccept.transferFrom(address(msg.sender), address(this), actualAmount), \"Tokens must be transferred\");\n\n        emit ContributionFrom(msg.sender, actualAmount);\n        uint256 newRaised = raised + actualAmount;\n\n        // if I dont have left funds I stop the crowdsale.\n        require(tokenToGive.balanceOf(address(this)) >= minFunds, \"Crowdsale has no funds\");\n\n        // here tokens are already sent and just need to be counted for contribution.\n        if (reservations[msg.sender] == 0) {\n            contributors.push(msg.sender);\n        }\n        reservations[msg.sender] += actualAmount;\n        raised += actualAmount;\n\n        if(raised == maxCap) { // reached the cap\n            emit CapReached();\n\n            for (uint256 i = 0; i < contributors.length; i++) {\n                address contr = contributors[i];\n                uint256 howManyToMint = reservations[contr] / acceptRatio * giveRatio;\n\n                if (howManyToMint > 0) {\n                    reservations[contr] = 0;\n                    require(tokenToGive.transfer(contr, howManyToMint), \"Must transfer tokens\");\n                }\n            }\n\n            raised = newRaised;\n            status = Status.STOPPED;\n            tokenToAccept.transfer(owner, tokenToAccept.balanceOf(address(this)));\n        }\n    }\n}",
  "sourcePath": "/home/philipp/dev/u8/co3/smart-contracts/contracts/TokenCrowdsale.sol",
  "compiler": {
    "name": "solc",
    "version": "0.5.2+commit.1df8f40c.Emscripten.clang"
  },
  "schemaVersion": "3.4.3",
  "updatedAt": "2021-09-06T07:30:10.371Z",
  "devdoc": {
    "methods": {
      "getMyReservation()": {
        "details": "getMyReservation gets the reservation of the caller user.",
        "return": "the reservation of the caller user, in TokenToAccept."
      },
      "getReservationsData()": {
        "details": "getReservationsData, accessible only to the crowdsale owner, returns     the reservations about all contributors.",
        "return": "the reservations of all contributors, in (address, TokenToAccept) parallel        arrays."
      },
      "joinCrowdsale(uint256)": {
        "details": "joinCrowdsale allows the user to contribute by the specified amount of TokenToGive,     if it passes the checks.",
        "params": {
          "_amount": "the amount of TokenToAccept to contribute with."
        }
      },
      "refundMe(uint256)": {
        "details": "refundMe refunds the pending contribution to the user, in the     specified amount.",
        "params": {
          "_amount": "the amount of TokenToAccept to refund."
        }
      },
      "stopCrowdsale()": {
        "details": "stopCrowdsale sets the crowdsale as Stopped."
      },
      "unlockCrowdsale()": {
        "details": "unlockCrowdsale unlocks the crowdsale if requirements are met."
      }
    },
    "title": "TokenCrowdsale contract allows multiple entities to put money into, and       when a certain cap is reached. It accepts a token and returns another token."
  },
  "userdoc": {
    "methods": {}
  }
}